:020000040800F2
:10000000100700206102000851230008551E000857
:1000100049230008D5040008D5240008000000008A
:10002000000000000000000000000000592300084C
:10003000250C000800000000552300085D2300087F
:100040007B0200087B0200087B0200087B0200089C
:100050007B0200087B0200087B0200087B0200088C
:100060007B0200087B0200087B0200087B0200087C
:100070007B0200087B0200087B0200087B0200086C
:100080007B0200087B0200087B02000800000000E1
:100090000000000000000000000000007B020008DB
:1000A0007B0200087B0200087B0200087B0200083C
:1000B000752300087B0200087B0200087B02000811
:1000C0007B0200087B0200087B0200087B0200081C
:1000D0007B0200087B0200087B0200080000000091
:1000E0007B0200087B0200087B0200080000000081
:1000F0000000000000000000000000007B0200087B
:10010000000000007B0200087B0200087B02000860
:1001100000000000000000000000000000000000DF
:100120007B0200087B0200087B0200087B020008BB
:100130007B0200080000000000000000000000003A
:100140000000000000000000000000007B0200082A
:100150007B0200087B0200087B0200087B0200088B
:100160007B0200087B020008000000000000000085
:10017000000000000000000000000000000000007F
:10018000000000007B0200080000000000000000EA
:100190007B02000800F002F800F052F814A696E87E
:1001A000000CB244B344DA4501D100F049F8BAE892
:1001B0000F000FA696E83000A5EB040504EB060738
:1001C000AAEB0704A7F101074FEA15154FEA34140B
:1001D000A4F10104AC4201D300F032F813F0010F96
:1001E00018BFFB1A43F0010300F001F8DBE71847E2
:1001F000CC290000EC290000103A24BF78C878C14F
:10020000FAD8520724BF30C830C144BF04680C601C
:1002100070470000704700000023002400250026DE
:10022000103A28BF78C1FBD8520728BF30C148BF59
:100230000B6070471FB502F0A7FC1FBD10B510BDC5
:1002400000F0D0F81146FFF7F5FF02F069F900F071
:10025000EEF803B4FFF7F2FF03BC00F0F5F800007E
:100260000948804709480047FEE7FEE7FEE7FEE74A
:10027000FEE7FEE7FEE7FEE7FEE7FEE70448054986
:10028000054A064B704700006123000895010008ED
:100290001001002010070020100300201003002090
:1002A00053EA020C00F069802DE9F04B4FF0000694
:1002B000002B1FBFB3FA83F503FA05F424FA05F601
:1002C0005E4012BF1643B2FA82F502FA05F4C5F198
:1002D00020051EBF22FA05FC44EA0C04203556EA2C
:1002E000044C4FEA144418BF641C4FF000084FF050
:1002F0000009904271EB030C39D3002919BFB1FA00
:1003000081F701FA07F6B0FA80F700FA07F6C7F1AD
:1003100020071EBF20FA07FC46EA0C062037B6FB72
:10032000F4FCA7EB0507103F07F01F0BCBF12006ED
:100330002CFA06F60CFA0BFB44BFB3460026202F1E
:10034000A4BF5E464FF0000B5BEA060C08BF4FF0FF
:10035000010B19EB0B0948EB0608ABFB027C06FB13
:1003600002CC0BFB03CCC01B71EB0C01C1E70B46AD
:10037000024641464846BDE8F08B13B5084318BF16
:100380004FF0FF300146AFF30080BDE81C407047DE
:100390004FF0000200B5134694469646203922BF1E
:1003A000A0E80C50A0E80C50B1F12001BFF4F7AF69
:1003B000090728BFA0E80C5048BF0CC05DF804EB4B
:1003C000890028BF40F8042B08BF704748BF20F8B9
:1003D000022B11F0804F18BF00F8012B70477047B7
:1003E00070477047754600F02BF8AE460500694629
:1003F000534620F00700854618B020B5FFF73EFFB2
:10040000BDE820404FF000064FF000074FF0000815
:100410004FF0000BAC46ACE8C009ACE8C009ACE852
:10042000C009ACE8C00921F007018D46704710B53E
:100430000446AFF300802046BDE81040FFF709BF37
:10044000004870471000002001491820ABBEFEE7AD
:10045000260002007047000010B501F0FDFC80206E
:1004600001F0D2FD15A001F0ABFE4FF4487000F092
:10047000A9FE0024C4F2020420464FF400710122B8
:1004800000F08AFF4FF4487000F09CFE20464FF4C5
:100490000071002200F080FF41F6583000F092FE1B
:1004A00001F0DAFC802001F0AFFD07A001F088FE2A
:1004B00040F6B830BDE8104000F084BE427261736F
:1004C000736167652E2E2E0043616665207072652C
:1004D00074202100FEE7000040F60040C4F2020054
:1004E0000421002200F058BF40F60040C4F2020090
:1004F0000421012200F050BF2DE9F04381B040F209
:100500007806C2F200060020307040F27C00C2F291
:10051000000001F06FFB3078F0B140F27C00C2F2D5
:10052000000001F0A9FB01F097FC802001F06CFDB8
:1005300036A001F045FEC02001F066FD00244FF416
:10054000FA6535A001F03CFE284600F03BFE20464F
:1005500001B0BDE8F08300BF40F600044FF0FF3764
:10056000C4F202040FF284080FF2900913E000BFF6
:10057000454601F071FC284601F022FE4FF49670CA
:1005800000F020FE2046042100F000FF01281BD0CF
:1005900030780028C1D1781C02D0002FF2DCF7E7B8
:1005A00020460121012700F0F1FE0128E0D020467D
:1005B0000221022700F0EAFE012801D14D46D8E7CA
:1005C0004FF0FF37E4E700BF40F27C00C2F20000CA
:1005D00001F052FB01F040FC15A011A1012F08BF52
:1005E000084601244FF47A75ACE700BF4578707275
:1005F0006573736F2063686F697369004361666533
:10060000206175206C61697400000000436F6D6D9E
:10061000616E646500000000616E6E756C6565005A
:10062000457870726573736F206C616E636500004E
:10063000436166654C616974206C616E636500009E
:10064000704700002DE9F04F85B00024C4F2020489
:10065000E84600264FF0200A4FF0010B20464146A5
:100660000496CDF800A0CDE901B6039600F0BEFDDA
:1006700020462021002200F08FFE012001F02CFFF7
:10068000E946204649460496CDE900A6CDE9026632
:1006900000F0ACFD0E2001F01FFF2046202100F0ED
:1006A00075FE07462D2001F017FF204641460496AF
:1006B000CDE900ABCDE9026600F098FD204620218F
:1006C000002200F069FE012001F006FF20464946A5
:1006D0000496CDE900A6CDE9026600F087FD0E2064
:1006E00001F0FAFE2046202100F050FE05462D20A4
:1006F00001F0F2FE2046414647EA45070496CDE95F
:1007000000ABCDE9026600F071FD204620210022F9
:1007100000F042FE012001F0DFFE2046494604962B
:10072000CDE900A6CDE9026600F060FD0E2001F0E3
:10073000D3FE2046202100F029FE05462D2001F0A1
:10074000CBFE2046414647EA85070496CDE900AB3B
:10075000CDE9026600F04AFD20462021002200F08B
:100760001BFE012001F0B8FE204649460496CDE963
:1007700000A6CDE9026600F039FD0E2001F0ACFEC6
:100780002046202100F002FE05462D2001F0A4FEA7
:100790002046414647EAC5070496CDE900ABCDE9BE
:1007A000026600F023FD20462021002200F0F4FD27
:1007B000012001F091FE204649460496CDE900A6AD
:1007C000CDE9026600F012FD0E2001F085FE204604
:1007D000202100F0DBFD05462D2001F07DFE2046A6
:1007E000414647EA05170496CDE900ABCDE902661C
:1007F00000F0FCFC20462021002200F0CDFD01206D
:1008000001F06AFE204649460496CDE900A6CDE9EE
:10081000026600F0EBFC0E2001F05EFE2046202177
:1008200000F0B4FD05462D2001F056FE204641465D
:1008300047EA45170496CDE900ABCDE9026600F022
:10084000D5FC20462021002200F0A6FD012001F069
:1008500043FE204649460496CDE900A6CDE902664E
:1008600000F0C4FC0E2001F037FE2046202100F0ED
:100870008DFD05462D2001F02FFE2046414647EA1A
:1008800085150496CDE900ABCDE9026600F0AEFC1B
:1008900020462021002200F07FFD012001F01CFEF7
:1008A000204649460496CDE900A6CDE9026600F04F
:1008B0009DFC0E2001F010FE2046202100F066FD78
:1008C00004462D2001F008FE45EAC410C0B205B070
:1008D000BDE8F08F000000002DE9F04186B0002453
:1008E000C4F20204002620274FF0010801A9204687
:1008F00005960197CDE90286049600F077FC204624
:100900002021002200F048FD4FF4F07001F0E4FDDA
:1009100001A920460596CDE90176CDE9036600F0F0
:1009200065FC502001F0D8FD2046202100F02EFD6E
:1009300005464FF4C87001F0CFFD2DB19FED2C0A94
:1009400006B0BDE8F08100BFCC2000F053F8442091
:1009500000F050F840F2EE2000F034FC01A92046EF
:100960000596CDE90178CDE9036600F03FFC20460D
:100970002021002200F010FD4FF4F07001F0ACFDDA
:1009800001A920460596CDE90176CDE9036600F080
:100990002DFC502001F0A0FD2046202100F0F6FCA7
:1009A0004FF4C87001F098FDCC2000F023F8BE2071
:1009B00000F020F8FFF746FE0446FFF743FE44EA46
:1009C000002000B201F0CBFF9FED070B53EC102B82
:1009D00001F0DCFF01F092FF00EE100A06B0BDE866
:1009E000F08100BF00BF00BF000000000000E03F3A
:1009F00000007AC42DE9F04F87B00025804640B250
:100A0000C4F202050DF1080A019000274FF0200BF7
:100A100001242846514608F001090697CDF808B090
:100A2000CDE90347059700F0E1FB2846202100228D
:100A300000F0B2FC0120B9F1000F08BF3C2001F02A
:100A40004BFD28462021012200F0A6FC3C20B9F1F4
:100A5000000F08BF012001F03FFD284651460697D0
:100A6000CDE902B4CDE9047700F0C0FB284620218F
:100A7000002200F091FC012018F0020608BF3C2083
:100A800001F02AFD28462021012200F085FC3C20AF
:100A9000002E08BF012001F01FFD28465146069791
:100AA000CDE902B4CDE9047700F0A0FB284620216F
:100AB000002200F071FC012018F0040608BF3C2061
:100AC00001F00AFD28462021012200F065FC3C20AF
:100AD000002E08BF012001F0FFFC28465146069772
:100AE000CDE902B4CDE9047700F080FB284620214F
:100AF000002200F051FC012018F0080608BF3C203D
:100B000001F0EAFC28462021012200F045FC3C20AF
:100B1000002E08BF012001F0DFFC28465146069751
:100B2000CDE902B4CDE9047700F060FB284620212E
:100B3000002200F031FC012018F0100608BF3C2014
:100B400001F0CAFC28462021012200F025FC3C20AF
:100B5000002E08BF012001F0BFFC28465146069731
:100B6000CDE902B4CDE9047700F040FB284620210E
:100B7000002200F011FC012018F0200608BF3C20E4
:100B800001F0AAFC28462021012200F005FC3C20AF
:100B9000002E08BF012001F09FFC28465146069711
:100BA000CDE902B4CDE9047700F020FB28462021EE
:100BB000002200F0F1FB012018F0400608BF3C20A5
:100BC00001F08AFC28462021012200F0E5FB3C20B0
:100BD000002E08BF012001F07FFC284651460697F1
:100BE000CDE902B4CDE9047700F000FB28462021CE
:100BF000002200F0D1FB019EB6F1FF3FC8BF3C24AC
:100C0000204601F069FC28462021012200F0C4FBA7
:100C10003C20B6F1FF3FC8BF012001F05DFC07B0EA
:100C2000BDE8F08F7047000010B500F0BBFB40F24C
:100C30007004C2F200046168401AB0F5FA7F0DD961
:100C400020784FF4807180F001020020C4F202008D
:100C5000227000F0A1FB00F0A5FB6060802001F095
:100C6000D3F905A001F0ACFAC02001F0CDF907A03E
:100C7000BDE8104001F0A4BA43686F69736972203F
:100C800043616665203A20200000000045787072BC
:100C90006573736F2F436166654C61697400000072
:100CA00070B581B00022009290F83C20012A03D157
:100CB000022001B070BD00BFD1F800E00122BEF1FA
:100CC0000A0F1FFA8EFC80F83C2009D34FEA4C0231
:100CD000036812FA8EF2A2F11E0403F10C0204E082
:100CE00003680EEB4E0403F1100207251668A540B9
:100CF00026EA050515608D68166805FA04F4344384
:100D000014604968062907D801EB81014A1F19467A
:100D100051F8345F0FE000BF0C2901EB810105D8C9
:100D2000A1F12302194651F8305F04E0A1F141021C
:100D3000194651F82C5F1F24944025EA04040C60E6
:100D40000CFA02F20C6842F2043CC4F2010C224399
:100D5000ACF54174A3420A603ED1BEF1120F07D137
:100D6000DCF8001041F48001CCF8001034E000BF42
:100D70002EF0010110292FD1DCF80010BEF1100F68
:100D800041F40001CCF8001026D140F20801C2F273
:100D9000000109684DF68362C4F21B32A1FB021206
:100DA000910C01EB8101490000910099A1B10099DA
:100DB00001390091009979B10099013900910099A8
:100DC00051B1009901390091009929B10099013977
:100DD000009100990029EAD1002180F83C10002000
:100DE00001B070BD0068C06C70470000002804BFEF
:100DF0000120704710B5016C00293DD0016CC90677
:100E000045D4016C41F202129143023142F20432A4
:100E10000164C4F20102116821F4403111601368C9
:100E200090E812102343D0F810E013604A680124C0
:100E300022F480724A604A68C0F6007442EA0E22C8
:100E40004A604A6822F040724A604A6842EA0C02EC
:100E50004A608A6822F400628A60C2688B681A431A
:100E60008A60826A8B68A24223F070638B608B6811
:100E700010D123F0405216E0044600F065F82046F9
:100E80000021616484F83C10016CC906B9D50121C8
:100E900053E000BF1A438A608A6822F040528A6099
:100EA000C26A8B681A438A608A6822F002028A60EA
:100EB0008A68037E90F8204042EA43028A604A68CA
:100EC00084B142F400624A604A684EF2000322F4A0
:100ED00060424A60426ACFF6FF734C6803EB4232CD
:100EE000224301E022F400624A60CA6A40F2000C28
:100EF00022F47002CA62C3694269CFF6F07CCC6A00
:100F00000CEB03532343CB628B6823F400738B6099
:100F100090F830308C6844EA43238B608B6823F46C
:100F200080638B608B6843EA82228A60002141647F
:100F3000026C012363F301020264002280F83C206A
:100F4000BDE810400846704780B586B042F2000107
:100F50000068C4F20101002288420592CDE9032213
:100F60000292019202D006B080BD00BF43F630006D
:100F70000092C4F20200436943F480734361436901
:100F800003F480730093009B0092036843F0010315
:100F90000360006800F00100009000980F200190AD
:100FA0000320CDE9020201F5604001A900F01EF91D
:100FB00006B080BD70B5044600680D4682685205D3
:100FC00044BF80685FEAC05038D400F0EBF9216874
:100FD0000A68920749D40646681C3CD0DDB9086807
:100FE000800721D5086880073FD4086880071BD593
:100FF0000868800739D40868800715D50868800715
:1010000033D4086880070FD508688007E7D52CE03F
:101010000868800729D400F0C5F9801B2168A84220
:10102000F6D908688007F3D4206C40F004002064EF
:10103000002084F83C00032070BD00BF206C40F00D
:1010400020002064002084F83C00012070BD00BF17
:101050000868800709D40868800706D408688007F4
:101060005CBF08685FEA8070F2D56FF0120008601C
:10107000206C40F400702064886810F0405F01D05C
:10108000002070BD207E0028FAD1C86A10F4700FCD
:1010900002D088684005F3D4206C20F4807020646E
:1010A000206CC004ECD4206C40F0010020640020CF
:1010B00070BD000010B581B00021009190F83C1087
:1010C000012903D1022001B010BD00BF0468012135
:1010D00080F83C10214651F8083FDB0729D10B6806
:1010E0004DF6836243F001030B6040F20803C2F245
:1010F00000031B68C4F21B32A3FB02239A0C02EB11
:1011000042020092009AA2B1009A013A0092009A1B
:101110007AB1009A013A0092009A52B1009A013ACB
:101120000092009A2AB1009A013A0092009A002A8D
:10113000EAD10A68036CD2070CD143F010010164B4
:1011400000F1440101200A6810430860002001B04A
:1011500010BD00BF40F2017223EA020202F5807264
:1011600002646268520504D5026C012363F30D32F8
:101170000264026C4FF0000C0023D20444BF426CA6
:1011800022F0060342F2000E436480F83CC06FF088
:101190002200C4F2010E2060DEF80403C00609D06C
:1011A00074450BD1DEF8080010F0405F06D14FF017
:1011B0008040C8E7086810F0405FF8D0002001B018
:1011C00010BD0000B0B5044600F0ECF8054640F252
:1011D0000000C2F200000078611C18BF044400BF88
:1011E00000F0E0F8401BA042FAD3B0BD2DE9F04F6B
:1011F00083B000F1200200F13E4741F20005009269
:1012000007F1FF77C4F2020507224FEAB726A8428A
:1012100008BF042200254FF000084FF00009042EFB
:1012200038BF4FEAB72201920AE000BF09F1010975
:1012300008F10208B9F1100F05F1040500F0A280D1
:101240000F68012202FA09FE17EA0E0AEED0D1F861
:1012500004C003220CF003077E1E02FA08F4012EDC
:101260006FEA040B12D88468CE6804EA0B0406FA0D
:1012700008F634438460446824EA0E06CCF3001474
:1012800004FA09F42643466004E000BF032F01D1AD
:1012900003271EE0C6688C6806EA0B0604FA08F409
:1012A0002643022FC66014D16FF00302009E02EAAB
:1012B000590756F807C005F01C040F220B69A2401D
:1012C0002CEA0202A3401A43F251D1F804C00CF0F8
:1012D0000307026807FA08F302EA0B021A431CF438
:1012E000403F0260A2D0002243F644030292C4F2BF
:1012F00002031A6843F6004442F480421A601A68F6
:10130000C4F2010402F480420292029A29F003021C
:101310004FF6084C2244CFF6FF7C52F80C3005F013
:101320000C070F26BE40B343019E06FA07F73B4366
:1013300042F80C30A2684B6842EA0A0743F60C4CAC
:10134000DE0258BF22EA0A07A760C4F2010CDCF8EB
:1013500000209E0242EA0A0758BF22EA0A07CCF898
:10136000007062689E0342EA0A0758BF22EA0A0731
:1013700067602268DB0342EA0A0758BF22EA0A07CD
:10138000276053E703B0BDE8F08F00000069084014
:1013900018BF012070470000002A08BF09048161BE
:1013A0007047000040F20C10C2F200000068704765
:1013B00040F2000040F20C11C2F20000C2F2000143
:1013C00000780A68104408607047000080B543F652
:1013D0000040C4F20200016841F40071016001683C
:1013E00041F480610160016841F480710160032073
:1013F00000F086F80F2000F005F800F027F8002034
:1014000080BD000070B540F20006C2F2000640F256
:1014100008013278C2F200014FF47A730968B3FB15
:10142000F2F20446B1FBF2F1084600F03DFB0F2C4E
:101430004FF0010508D838B94FF0FF30214600229F
:10144000002500F031F87460284670BD82B000209D
:1014500043F640010190C4F202014A6842F480421E
:101460004A604A6802F480420192019A009008683A
:1014700040F080500860086800F0805000900098AC
:1014800002B07047002848BF704700F01F010122DA
:1014900002FA01F11C2202EAD0004EF20012CEF252
:1014A000000281507047000010B54EF60C5CCEF281
:1014B000000CDCF80030C3F3022E8EF00704042C7D
:1014C00028BF0424BEF103034FF0FF3E0EFA04F4DC
:1014D00038BF0023A14399400EFA03F39A43114306
:1014E00000F00F0200F160430901043A03F5644380
:1014F0006244002848BF02F10C03197010BD0000BF
:101500004EF60C51CEF200010A684FF6FF031A4066
:1015100060F30A2242F0806040F0FD70086070477E
:10152000002804BF012070472DE9F04143F6080868
:10153000C4F202080446D8F8F8030D4600F007008C
:10154000884207D288F8F853D8F8F80300F007006B
:10155000A84277D12068810717D5410705D5D8F86B
:10156000001041F4E051C8F80010010705D5D8F883
:10157000001041F46041C8F80010D8F80010A268CB
:1015800021F0F0011143C8F80010C00740D1D8F88D
:10159000F80300F00700A84207D988F8F853D8F8F4
:1015A000F80300F00700A8424CD12068410707D596
:1015B000D8F80010E26821F4E0511143C8F8001097
:1015C000000708D5D8F80000216920F4604040EAFF
:1015D000C100C8F8000000F05BF8D8F8001042F62F
:1015E000AC32C1F30311C0F60002515C40F20802B4
:1015F00020FA01F140F20400C2F200000068C2F2D9
:1016000000021160FFF7FEFE0020BDE8F08100BF80
:101610006068811E022907D258F8081C89015CBF46
:101620000120BDE8F08111E0012807D158F8081C1D
:1016300089035CBF0120BDE8F08107E058F8081C71
:10164000890703D40120BDE8F08100BFD8F800105D
:1016500021F003010843C8F80000FFF7A3FE064687
:1016600041F28837D8F80000616800F00C00B0EB58
:10167000810F8CD0FFF796FE801BB842F2D9032071
:10168000BDE8F08140F20800C2F200000068704737
:1016900010B543F60404C4F20204606800F00C00C4
:1016A00008280BD0042819BF42F20040C0F2F40011
:1016B00047F64000C0F27D1010BD00BF20682168D1
:1016C0002368490247F64001C0F27D1100F03F0255
:1016D000C3F388105CBF42F20041C0F2F401A1FBE9
:1016E00000010023FEF7DCFD21680222C1F3014165
:1016F00002EB4101B0FBF1F010BD0000002804BF77
:10170000012070472DE9F04182B00446007843F68D
:101710000006C007C4F202060CD0B06800F00C004E
:10172000042840F081803068800303D56068002879
:1017300000F06881207880071BD5B06810F00C0F8E
:1017400009D0B06800F00C00082840F0878070686D
:10175000400200F183803068800703D5E0680128EB
:1017600040F050813068216920F0F80040EAC10063
:1017700030602078000713D4207840072AD4A56968
:10178000002D00F03A81B06800F00C00082840F00D
:10179000A580012D40F00E81012002B0BDE8F0814E
:1017A0006069002800F082800020C4F247200121F7
:1017B000C0F8801EFFF7F6FD054600BF706F80077A
:1017C000DAD4FFF7EFFD401B0228F7D9032002B05F
:1017D000BDE8F081306C5FEAC0080AD400200190B7
:1017E000306C40F080503064306C00F080500190DC
:1017F000019847F20007C4F200073868C00547D4D3
:10180000386840F480703860FFF7CCFD054600BFB3
:101810003868C0053CD4FFF7C5FD401B0228F7D946
:10182000032002B0BDE8F081B06800F00C00082889
:1018300003D1706840023FF576AF61683068B1F55A
:10184000803F07D0B1F5A02F40F09A8040F480206F
:101850003060306840F4803030609AE0E068002802
:1018600040F20000C4F247205CD001210160FFF784
:1018700099FD0546306880073FF574AFFFF792FD8C
:10188000401B0228F6D9032002B0BDE8F08100BF5A
:10189000A168306F012905D0052955D140F0040019
:1018A0003067306F40F00100306756E00020C4F22E
:1018B00047200021C0F8801EFFF774FD054600BFD9
:1018C000706F80077FF558AFFFF76CFD401B022853
:1018D000F6D9032002B0BDE8F08100BF0027C4F2B2
:1018E000472700203866FFF75DFD022D05460DD124
:1018F0003068800140F18A80FFF754FD401B0228C8
:101900004FF00300F4D902B0BDE8F08130688001E7
:1019100073D5FFF747FD401B02284FF00300F5D9B0
:10192000F1E700BF00210160FFF73CFD054600BF65
:10193000306880077FF51DAFFFF734FD401B02289C
:101940004FF00300F4D9DEE720F001003067306F7C
:10195000002920F0040030677AD0FFF723FD054608
:1019600041F28837306F800700F18480FFF71AFD5D
:10197000401BB842F6D9032002B0BDE8F08100BF99
:1019800020F4803030603068002920F480203060FE
:101990007AD0FFF707FD0546306880033FF5CAAEF1
:1019A000FFF700FD401B6428F6D9032002B0BDE814
:1019B000F08100BF7068E16900F480028A4221D1A1
:1019C000216A00F03F028A421CD147F6C071626A68
:1019D0000140B1EB821F15D1A16A4FF6FF73C90315
:1019E000994300F44032A1F580318A420AD1E16A7C
:1019F00000F07060B0EB016F04D1002002B0BDE8D0
:101A0000F08100BF012002B0BDE8F08104F11C05A7
:101A10002FCD084340EA8210D9034FF6FF7291435D
:101A2000A1F5803140EA0560084370600120386606
:101A3000FFF7B8FC044600BF30688001DDD4FFF733
:101A4000B1FC001B02284FF00300F5D95BE700BF93
:101A5000FFF7A8FC054641F2883700BF306F8007CA
:101A600008D5FFF79FFC401BB8424FF00300F5D9A3
:101A700049E700BFB8F1000F3FF581AE306C20F0B0
:101A8000805030647BE600BFFFF78CFC054600BF4A
:101A9000306880037FF54EAEFFF784FC401B64285E
:101AA0004FF00300F4D92EE7411E0020B0EB116F78
:101AB0001CBF012070474EF21002CEF200025160AE
:101AC0004EF62351CEF20001F0230B7007219060F7
:101AD0001160704790F83C20012A4FF0020241D07B
:101AE00010B580F83D200268D2F804E0D2F808C0B2
:101AF0000C682EF07003234340F6FF34C4F2000458
:101B0000A242536010DCB2F1804F1ED040F200437D
:101B1000C4F200039A4218D040F60003C4F2000356
:101B20009A4212D016E000BF40F60043C4F2000310
:101B30009A420AD044F20003C4F201039A4204D04C
:101B40000023C4F201039A4204D149682CF08003B7
:101B5000194391600121002280F83D1080F83C205B
:101B6000BDE8104010467047002804BF01207047B0
:101B700010B5044690F83D0028B9002084F83C00D8
:101B8000204600F01FF8022084F83D002068211D47
:101B900000F008FC012084F8460084F83E0084F838
:101BA0003F0084F8400084F8410084F8420084F843
:101BB000430084F8440084F8450084F83D00002088
:101BC00010BD00000068B0F1804F18BF704781B0B1
:101BD0000020009043F64000C4F20200016841F08A
:101BE00001010160006800F001000090009801B060
:101BF0007047000090F83D1001291CBF012070477C
:101C0000022180F83D10006840F6FF32C168C4F23E
:101C10000002904241F00101C1600FDCB0F1804F41
:101C20001DD040F20041C4F20001884217D040F6B6
:101C30000001C4F20001884211D017E040F60041D3
:101C4000C4F2000188420AD044F20001C4F201014A
:101C5000884204D00021C4F20101884206D1816883
:101C600001F00701062904BF00207047016841F018
:101C700001010160002070470146006841F2111324
:101C8000C26822F00102C260026A1A4204D0012234
:101C9000002081F83D207047026A40F244431A4216
:101CA000F5D1026822F0010202600122002081F8D1
:101CB0003D20704790F83C20012A4FF002026CD082
:101CC00080B580F83D20D0F800C04FF67772DCF880
:101CD000083023EA0202CCF808200B684F2B29DCDD
:101CE0001F2B45DD202B46D0302B44D0402B40F01D
:101CF000AF80D1F804E0C968DCF82030DCF820209F
:101D000022F00102CCF82020DCF8182022F0F002AA
:101D100042EA011123F00A0242EA0E02CCF818103E
:101D2000CCF82020DCF8081041F0470121F0300108
:101D300028E000BF6F2B33DDB3F5005F74D0B3F53F
:101D4000805F21D0702B40F08380D1E901E3C96826
:101D5000DCF8082043EA0E0322F47F4243EA012123
:101D60001143CCF80810DCF8081041F0770109E0C5
:101D70000BB1102B6CD1DCF8081021F07001194365
:101D800041F00701CCF808100022012180F83D1035
:101D9000002180F83C10BDE880401046704700BF2D
:101DA000502B21D0602B53D1D1F804E0C968DCF866
:101DB0002030DCF8202022F01002CCF82020DCF8C3
:101DC000182022F4704242EA013123F0A00242EAD4
:101DD0000E12CCF81810CCF82020DCF8081041F0D6
:101DE000670121F01001CDE7D1F804E0C968DCF803
:101DF0002030DCF8202022F00102CCF82020DCF892
:101E0000182022F0F00242EA011123F00A0242EA0D
:101E10000E02CCF81810CCF82020DCF8081041F0A5
:101E2000570121F02001ADE7D1E901E3C968DCF8F1
:101E3000082043EA0E0322F47F4243EA01211143C2
:101E4000CCF80810DCF8081041F480419AE700BF94
:101E500001229AE7FEE7000080B5012000F0D4F8E7
:101E60000220BDE88040FFF7ADB9000010B5322078
:101E7000FFF7A8F940F20044C4F2020420464FF4F0
:101E800080510122FFF788FA20464FF400510122C9
:101E9000FFF782FA20464FF480410022FFF77CFAD8
:101EA00020464FF400410022FFF776FA20464FF417
:101EB00080610122FFF770FA0120FFF783F92046C5
:101EC0004FF480610022FFF767FA0120FFF77AF9EB
:101ED0000520FFF777F920464FF480510122FFF7E4
:101EE0005BFA20464FF400510122FFF755FA2046D5
:101EF0004FF480410022FFF74FFA20464FF4004193
:101F00000022FFF749FA20464FF480610122FFF7D3
:101F100043FA0120FFF756F920464FF48061002272
:101F2000FFF73AFA0120FFF74DF90520FFF74AF9CC
:101F300020464FF480510122FFF72EFA20464FF43D
:101F400000510122FFF728FA20464FF48041002279
:101F5000FFF722FA20464FF400410022FFF71CFA57
:101F600020464FF480610122FFF716FA0120FFF7A7
:101F700029F920464FF480610022FFF70DFA012075
:101F8000FFF720F90520FFF71DF920464FF4805197
:101F90000022FFF701FA20464FF400510122FFF71B
:101FA000FBF920464FF480410022FFF7F5F9204667
:101FB0004FF400410022FFF7EFF920464FF4806113
:101FC0000122FFF7E9F90120FFF7FCF820464FF462
:101FD00080610022FFF7E0F90120FFF7F3F801200C
:101FE000FFF7F0F8282000F00FF80C2000F00CF8B4
:101FF000062000F009F8012000F006F80220BDE8F4
:102000001040FFF7DFB80000B0B540F20044C4F262
:1020100002040546204602210022FFF7BDF92046B2
:1020200001210022FFF7B8F9C5F3001220464FF452
:102030008051FFF7B1F9C5F3401220464FF400512B
:10204000FFF7AAF9C5F3801220464FF48041FFF74D
:10205000A3F9EA0920464FF40041FFF79DF9204615
:102060004FF480610122FFF797F90120FFF7AAF8EA
:1020700020464FF480610022FFF78EF90120FFF720
:10208000A1F805F0010220464FF48051FFF784F9D2
:10209000C5F3400220464FF40051FFF77DF9C5F328
:1020A000800220464FF48041FFF776F9C5F3C00265
:1020B00020464FF40041FFF76FF920464FF480614E
:1020C0000122FFF769F90120FFF77CF820464FF461
:1020D00080610022FFF760F90120BDE8B040FFF702
:1020E00071B80000B0B540F20044C4F202040546E5
:1020F000204602210122FFF74FF92046012100224C
:10210000FFF74AF9C5F3001220464FF48051FFF75C
:1021100043F9C5F3401220464FF40051FFF73CF954
:10212000C5F3801220464FF48041FFF735F9EA09E4
:1021300020464FF40041FFF72FF920464FF480610D
:102140000122FFF729F90120FFF73CF820464FF460
:1021500080610022FFF720F90120FFF733F805F036
:10216000010220464FF48051FFF716F9C5F34002F3
:1021700020464FF40051FFF70FF9C5F380022046C7
:102180004FF48041FFF708F9C5F3C00220464FF431
:102190000041FFF701F920464FF480610122FFF76B
:1021A000FBF80120FFF70EF820464FF48061002273
:1021B000FFF7F2F80120BDE8B040FFF703B80000D8
:1021C0000178002908BF704710B5441EC8B2FFF758
:1021D00089FFA17801340029F8D1BDE8104070478B
:1021E000704700000020C4F2020010210022FFF717
:1021F000D3B800000020C4F2020010210122FFF732
:10220000CBB8000010B584B040F2C4040020012116
:10221000C2F2000403900090CDE901106946204607
:10222000FEF73EFD2046FEF745FF20464FF0FF310A
:10223000FEF7C0FE2046FEF7D5FD80B204B010BD0B
:1022400010B584B040F2C40400200121C2F20004A1
:102250000390CDE90011029069462046FEF720FD6B
:102260002046FEF727FF20464FF0FF31FEF7A2FE83
:102270002046FEF7B7FD80B204B010BD10B584B0A3
:10228000022140F2C404002000910121C2F20004A6
:102290000390CDE9011069462046FEF701FD204676
:1022A000FEF708FF20464FF0FF31FEF783FE204681
:1022B000FEF798FD80B204B010BD000010B584B0E8
:1022C000032140F2C404002000910121C2F2000465
:1022D0000390CDE9011069462046FEF7E1FC204657
:1022E000FEF7E8FE20464FF0FF31FEF763FE204682
:1022F000FEF778FD80B204B010BD000010B540F6C6
:102300000004C4F20204FFF7A7FD8020FFF77CFE63
:1023100008A0FFF755FF00BF20461021FFF736F851
:10232000012803D1C820FEF74DFFF5E7BDE81040B6
:10233000FFF792BD536F7573204D61696E74656EC2
:10234000616E636500000000FEE70000704700005A
:10235000FEE700007047000070470000FFF728B854
:102360004EF68850CEF20000016841F47001016021
:102370007047000040F27C00C2F200000068016972
:10238000C9071CBFC1685FEAC17101D1704700BFB6
:102390006FF00101016140F27800C2F200000121FA
:1023A0000170704710B540F2FF7E0368C4F2000E62
:1023B00040F2000C7045C4F2010C1DDD40F6000235
:1023C000C4F20002904220D060451ED040F6004288
:1023D000C4F20002904218D04FF6FF72C4F200021D
:1023E00090421CDC704525DCB0F1804F3AD040F2C1
:1023F0000042C4F2000233E0B0F1804F05D040F259
:102400000042C4F200029042E6D14A6823F0700311
:1024100013434FF6FF72C4F200029042E2DD44F231
:10242000FF32C4F20102904210DC60451AD044F23F
:10243000000213E040F60002C4F20002904211D004
:1024400040F60042C4F200020AE000BF44F6000277
:10245000C4F20102904205D044F20042C4F20102EB
:10246000904203D1CA6823F44073134323F08002DF
:102470004B69D1F800E08C681A4360450260C46281
:10248000C0F828E002D10969CCF83010012141617F
:102490000169C90708BF10BD016921F0010101618F
:1024A00010BD000080B5FEF717FAB3EE0B1AB4EEBC
:1024B000410AF1EE10FA03DDBDE8804000F0D6B924
:1024C000B4EE410AF1EE10FAC8BF80BDBDE880400D
:1024D00000F0C4B9FEE7000070B541F20405CEF289
:1024E00000052E680446FFF7CDF84DF68361C4F26F
:1024F0001B31A0FB0101880C604308E02968891B9F
:10250000814228BF70BD2968891B814207D2296892
:10251000891B814203D22968891B8142EED370BD99
:1025200094B043F6300547F20007C4F20205C4F246
:102530000007FEF74BFF08AC20463021FDF728FFCF
:1025400000260696CDE90466CDE902660196286963
:10255000022140F080502861286900F080500190ED
:1025600001980196386861F38F303860386800F45C
:1025700040400190019801200B9010200C902046C3
:1025800008910E96FFF7BAF810B172B6FEE700BFD9
:102590000F20CDE9020602A80021CDE904660696C7
:1025A000FEF7BEFF10B172B6FEE700BF00240C9428
:1025B000CDE90A44CDE908440294286807F5C83BF0
:1025C00040F00400286028684FF4447100F00400D3
:1025D0000290029802942868002240F001002860CE
:1025E000286800F00100029002980294286840F0E8
:1025F00002002860286800F002000290029802940D
:10260000286840F010002860286800F01000029050
:1026100002980294286840F008002860286800F0BA
:102620000800029002985846FEF7B6FE07F5CA3039
:102630004FF2034100220090FEF7AEFE07F5D039BD
:1026400048464FF480610022FEF7A6FE07F5CE3A19
:10265000504606210022FEF79FFE152007F5CC36D6
:1026600008ADCDE908044FF0020830462946CDF800
:102670002880FEF7BBFD30462946CDE908840A9440
:10268000FEF7B4FD4FF444700890012658462946E1
:10269000CDE909640B94FEF7A9FD2020CDE90804DB
:1026A000584629460A94FEF7A1FD4FF20340CDE9B2
:1026B000080600982946CDE90A44FEF797FD4FF435
:1026C0008060CDE9080648462946CDE90A44FEF770
:1026D0008DFD0620CDE9080650462946CDE90A447D
:1026E000FEF784FD40F27805C2F200054FF080410C
:1026F000284640F8041F41F61F4142F20F720B9426
:10270000CDE90944CDE90244C0E90114C0E903243C
:102710008461FFF729FA18B172B600BFFEE700BF67
:102720004FF480502C1D089008A92046FFF7C2FAEC
:1027300010B172B6FEE700BF02A92046FFF7CAF942
:1027400010B172B6FEE700BF40F2C40001220024BF
:1027500007F53041C2F20000C0F6007201250B946B
:10276000047680F82040C0E90A24C56180F8304032
:10277000C0E90014C0E90244C0E90445FEF736FB95
:1027800010B172B6FEE700BF40F2C400C2F2000012
:1027900008A9CDE908450A94FEF782FA10B172B68D
:1027A000FEE700BF1C2000210022FEF77DFE1C205A
:1027B000FEF768FE4EF6FC50CEF20000016841F0D4
:1027C0008071016041F20000CEF20000016841F02A
:1027D00001010160FFF74AFBFDF732FFFFF700FD43
:1027E000FFF7B4FD00F008F8FFF75CFE4FF47A70D5
:1027F000FEF7E8FCF6E7000010B540F60004C4F26E
:10280000020420461021FEF7C1FD012804D1BDE8D5
:102810001040FFF773BD00BF00F030F840F20C002D
:10282000C2F200000078012816D1FEF7FDF920461B
:102830000121FEF7ABFD012806D020460221FEF75C
:10284000A5FD012818BF10BDFDF756FE20B1BDE85B
:102850001040FDF701BE00BF10BD000040F6004073
:10286000C4F2020002210022FEF796BD40F60040AD
:10287000C4F2020002210122FEF78EBD70B5FFF7FF
:10288000C1FC0546FFF7DCFC0446FFF7F7FC0646F3
:10289000FFF714FDB54228BF844219D2FFF7DCFAD6
:1028A00011A0FFF78DFCFFF7A5FCFDF71DFE40F220
:1028B0000C03C2F2000300260020C4F202004FF411
:1028C000807100221E70BDE87040FEF765BD00BF3C
:1028D000FFF788FCFDF700FE40F20C00C2F200009A
:1028E0000121017070BD00BF5265617070726F761A
:1028F0006973696F6E6E656D656E740021F00042DC
:1029000001F00043A2F16052B2F5801F28BFD2F15E
:102910007F6C0BD95FEA001C43EAC20242EB5070A5
:1029200018BF704728BF20F001007047B2F5801F24
:10293000BCBF184670474FEA410C1CF5001F02D27D
:10294000084600F02EB970B500F0CAF80000008902
:10295000FFF7F6BF4FF00040A0F58000704710F081
:10296000004248BF4042B0FA80F310FA03F10AD0A7
:10297000C3F11D0303F5806302EB03524FEA41509C
:1029800002EBD12170474FF00000704770B5DFF8BF
:1029900048C11CEA111E1EBF1CEA13159EEA0C0F4B
:1029A00095EA0C0F00F06F8081EA03044EEAD47EB2
:1029B000AE4421EA4C1123EA4C1341F4801143F454
:1029C0008013AEF17F7EA1FB024CA0FB036536199C
:1029D00055EB0C05A1FB034C4CF10003A0FB021CC2
:1029E00016EB0C06654153F10003094218BF46F08F
:1029F000010613F4007F0BD14FEA03314FEA053093
:102A000041EA155140EA165034036FF003020AE020
:102A10004FEAC3214FEAC52041EA555140EA5650DA
:102A2000F4026FF0020202EB2E4201EB025585EA3E
:102A3000CE710AD05FEA440C18BF24F0004450F174
:102A4000000041F1000120EAD47040F2FE7C6245B2
:102A500000D270BDA84214BF4FF080444FF04044F4
:102A6000002E08BF0024BEF1806FA8BFA1F1C041B5
:102A7000BDE8704080F2828001F1C04101F0004168
:102A80004FF0000070470CEA13159EEA0C0F18BFB8
:102A900095EA0C0F06D081EA030E4FF000000EF00D
:102AA000004170BD00F01CF88900013E00F007B83D
:102AB00000F009B84FEA430C5FEA5C5C08D081EA99
:102AC000030100F05BB84FEA410C5FEA5C5CF6D1B1
:102AD00002494FF0000070470000FF070000F87F38
:102AE0000EF1020E2EF0030E5EF8046B364205D492
:102AF000012A43EB030515F5001F12D8012841EB0D
:102B0000010C1CF5001F0CD80ED14FEAD17C0CEB48
:102B10004C0C0CF1020C15F5001F08BF4CEBD37CDC
:102B200004E04FF0080C01E04FEAD37C0CEB4C05BD
:102B300026FA05F606F00706B6F1040C06D20EEBEF
:102B4000860CBDE870404CF0010C6047DFE80CF0EB
:102B5000090B02024FF00041A1F500214FF00000E7
:102B600070BD19461046012851EB010418BFD4F579
:102B7000001484BF002001F0004170BD0808A0F5DA
:102B800000114FEA31017047F1EE100A4FF6FF7164
:102B9000C0F2C03120EA010040F04070E1EE100ABE
:102BA0007047FF2141EAD050C00570470000000087
:102BB000000000000102030406070809E02B0008DA
:102BC0000000002010000000F8010008F02B0008B1
:102BD000100000200007000018020008000000009C
:102BE00001000000100000000024F40001000000BB
:040000050800019559
:00000001FF
